:020000040800F2
:1000000070060020CD0100085D04000855040008BA
:10001000590400088702000851070008000000008A
:10002000000000000000000000000000990500082A
:100030008B020008000000005F040008850600082D
:10004000E7010008E7010008E7010008E7010008F0
:10005000E7010008E7010008E7010008E7010008E0
:10006000E7010008E7010008E7010008E7010008D0
:10007000E7010008E7010008E7010008E7010008C0
:10008000E7010008E7010008E7010008E7010008B0
:10009000E7010008E7010008E7010008E7010008A0
:1000A000E7010008E7010008E7010008E701000890
:1000B000E7010008E9060008E7010008E701000879
:1000C000E7010008E7010008E7010008E701000870
:1000D000E7010008E7010008E7010008E701000860
:1000E000E7010008E7010008E7010008E701000850
:1000F000E7010008E7010008E7010008E701000840
:10010000E7010008E7010008E7010008E70100082F
:10011000E7010008E7010008E7010008E70100081F
:10012000E7010008E7010008E7010008E70100080F
:1001300000F002F800F03AF80AA090E8000C8244BF
:100140008344AAF10107DA4501D100F02FF8AFF29C
:10015000090EBAE80F0013F0010F18BFFB1A43F0A5
:10016000010318475C0900007C090000103A24BF15
:1001700078C878C1FAD8520724BF30C830C144BF0C
:1001800004680C607047000000230024002500264E
:10019000103A28BF78C1FBD8520728BF30C148BFEA
:1001A0000B6070471FB51FBD10B510BD00F031F8D2
:1001B0001146FFF7F7FF00F069FC00F04FF803B4B9
:1001C000FFF7F2FF03BC00F057F800000948804732
:1001D00009480047FEE7FEE7FEE7FEE7FEE7FEE729
:1001E000FEE7FEE7FEE7FEE704480549054A064B41
:1001F00070470000890600083101000870000020E7
:1002000070060020700200207002002070477047C6
:100210007047754600F02CF8AE4605006946534617
:1002200020F00700854618B020B5FFF7DDFFBDE8D8
:1002300020404FF000064FF000074FF000084FF04D
:10024000000B21F00701AC46ACE8C009ACE8C009DE
:10025000ACE8C009ACE8C0098D46704710B504464B
:10026000AFF300802046BDE81040FFF7A8BF0000B4
:10027000004870471000002001491820ABBEFEE77F
:1002800026000200704700BFFEE770472DE9F041ED
:10029000024600250026002000230024002791F8B4
:1002A00003C00CF00F0591F803C00CF0100CBCF16A
:1002B000000F03D091F802C04CEA050591F800C088
:1002C000BCF1000F31D0146800202BE04FF0010C7E
:1002D0000CFA00F3B1F800C00CEA03069E4220D1EC
:1002E00083004FF00F0C0CFA03F7BC4305FA03FC34
:1002F0004CEA040491F803C0BCF1280F06D14FF07A
:10030000010C0CFA00FCC2F814C00AE091F803C01A
:10031000BCF1480F05D14FF0010C0CFA00FCC2F8FB
:1003200010C0401C0828D1D31460B1F800C0BCF143
:10033000FF0F34DD546800202EE000F1080C4FF070
:10034000010808FA0CF3B1F800C00CEA03069E425B
:1003500021D183004FF00F0C0CFA03F7BC4305FAD0
:1003600003FC4CEA040491F803C0BCF1280F05D14A
:1003700000F1080C08FA0CF8C2F8148091F803C0D8
:10038000BCF1480F07D100F1080C4FF0010808FA42
:100390000CF8C2F81080401C0828CED35460BDE889
:1003A000F08102460020D3680B400BB1012000E031
:1003B00000207047416170470161704770B5044685
:1003C0004FF400712048FFF7F7FF0A2094FBF0F18B
:1003D00000FB114594FBF0F61C4806602AE01B4820
:1003E000006800F08DFA1A48056019E018480068A6
:1003F00000F0FCF91648006810B90A20144908609A
:100400004FF47A7000F00AFB114800680A2802D104
:1004100000200F4908600E480068401E0C49086023
:100420000B4800680028E1DA092508480068401EEA
:1004300006490860054800680028D0DA4FF40071CA
:100440000148FFF7B7FF70BD000C0140000000201D
:100450000400002000BFFEE700BFFEE770477047C2
:1004600029B1064A92690243044B9A6104E0034AA7
:1004700092698243014B9A6170470000001002406C
:1004800070B504464FF480512048FFF795FF0A20CD
:1004900094FBF0F100FB114594FBF0F61C4806605C
:1004A0002AE01B48006800F02BFA1A48056019E0A2
:1004B0001848006800F09AF91648006810B90A2038
:1004C000144908604FF47A7000F0A8FA11480068E7
:1004D0000A2802D100200F4908600E480068401E1B
:1004E0000C4908600B4800680028E1DA0925084833
:1004F0000068401E06490860054800680028D0DAF8
:100500004FF480510148FFF755FF70BD000C0140CA
:10051000000000200400002010B502210D48FFF764
:1005200049FF04210B48FFF745FF08210948FFF761
:1005300041FF10210748FFF73DFF20210548FFF745
:1005400039FF40210348FFF735FF80210148FFF7BD
:1005500031FF10BD0008014010B502210D48FFF722
:1005600029FF04210B48FFF725FF08210948FFF761
:1005700021FF10210748FFF71DFF20210548FFF745
:1005800019FF40210348FFF715FF80210148FFF7BD
:1005900011FF10BD000C0140704710B500F002F8CB
:1005A00010BD00000CB50020019000903348006899
:1005B00040F480303149086000BF3048006800F4E2
:1005C000003000900198401C0190009818B90198E3
:1005D000B0F5A06FF1D12948006800F4003010B1E7
:1005E0000120009001E0002000900098012843D1F4
:1005F0002348006840F01000214908600846006860
:1006000020F0030008600846006840F0020008601F
:100610001A484068194948600846406848600846DA
:10062000406840F4806048600846406820F47C10D0
:1006300048600846406840F4E81048600846006892
:1006400040F08070086000BF0C48006800F0007047
:100650000028F9D00948406820F0030007494860A5
:100660000846406840F00200486000BF0348406808
:1006700000F00C000828F9D10CBD00000010024069
:10068000002002407047000010B51348006840F099
:1006900001001149086008464068104908400E49A9
:1006A0004860084600680E4908400B490860084643
:1006B000006820F4802008600846406820F4FE00AE
:1006C00048604FF41F008860FFF767FF4FF000603D
:1006D0000449086010BD0000001002400000FFF84F
:1006E000FFFFF6FE08ED00E010B501210C4800F018
:1006F0001EF801280FD141030A48FFF752FE0128D6
:1007000004D141030748FFF755FE04E04FF40051C0
:100710000448FFF751FE0121014800F005F810BD23
:1007200000040040000C0140CA430282704730B50B
:100730000246002000230024158A05EA010395895A
:1007400005EA010413B10CB1012000E0002030BD26
:1007500000BFFEE770B504464FF480612048FFF704
:100760002BFE0A2094FBF0F100FB114594FBF0F600
:100770001C4806602AE01B48006800F0C1F81A48CF
:10078000056019E01848006800F030F81648006865
:1007900010B90A20144908604FF47A7000F03EF94D
:1007A000114800680A2802D100200F4908600E484D
:1007B0000068401E0C4908600B4800680028E1DA18
:1007C000092508480068401E064908600548006879
:1007D0000028D0DA4FF480610148FFF7EBFD70BDCF
:1007E000000C0140000000200400002010B5044669
:1007F00034B9FFF791FE80214048FFF7DDFD7BE033
:10080000012C16D1FFF788FE02213C48FFF7D4FDEA
:1008100010213A48FFF7D0FD20213848FFF7CCFDE2
:1008200040213648FFF7C8FD80213448FFF7C4FD5A
:1008300062E0022C0AD1FFF76FFE08212F48FFF774
:10084000BBFD40212D48FFF7B7FD55E0032C0AD131
:10085000FFF762FE20212948FFF7AEFD402127481F
:10086000FFF7AAFD48E0042C0ED1FFF755FE022148
:100870002248FFF7A1FD10212048FFF79DFD202110
:100880001E48FFF799FD37E0052C0AD1FFF744FE1B
:1008900004211A48FFF790FD20211848FFF78CFD2E
:1008A0002AE0062C06D1FFF737FE04211348FFF794
:1008B00083FD21E0072C12D1FFF72EFE40210F48C7
:1008C000FFF77AFD10210D48FFF776FD20210B4838
:1008D000FFF772FD80210948FFF76EFD0CE0082C40
:1008E00002D1FFF719FE07E0092C05D1FFF714FE2E
:1008F00020210248FFF760FD10BD00000008014004
:1009000010B5044634B9FFF727FE80214148FFF7B0
:1009100053FD7DE0012C16D1FFF71EFE02213D485C
:10092000FFF74AFD10213B48FFF746FD20213948DB
:10093000FFF742FD40213748FFF73EFD8021354853
:10094000FFF73AFD64E0022C0AD1FFF705FE08210B
:100950003048FFF731FD40212E48FFF72DFD57E0CD
:10096000032C0AD1FFF7F8FD20212A48FFF724FDC8
:1009700040212848FFF720FD4AE0042C0ED1FFF764
:10098000EBFD02212348FFF717FD10212148FFF757
:1009900013FD20211F48FFF70FFD39E0052C0AD178
:1009A000FFF7DAFD04211B48FFF706FD2021194857
:1009B000FFF702FD2CE0062C06D1FFF7CDFD042148
:1009C0001448FFF7F9FC23E0072C12D1FFF7C4FD10
:1009D00040211048FFF7F0FC10210E48FFF7ECFC17
:1009E00020210C48FFF7E8FC80210A48FFF7E4FCCF
:1009F0000EE0082C02D1FFF7AFFD09E006480068C1
:100A0000092805D1FFF788FD20210248FFF7D4FC13
:100A100010BD0000000C0140000000200021002259
:100A200000BF05E0002200E0521C782AFCD3491CDC
:100A30008142F7D37047000008B501210420FFF779
:100A40000FFD10208DF803004FF6FE70ADF800008A
:100A500003208DF8020069460A48FFF717FC0121C0
:100A60000820FFF7FDFC10208DF803004FF6FE7004
:100A7000ADF8000003208DF8020069460248FFF738
:100A800005FC08BD00080140000C0140FFF7D4FF41
:100A90004FF480710948FFF78FFC4FF480610748DD
:100AA000FFF78AFC08E00F20FFF788FC0520FFF71E
:100AB00051FE0F20FFF7E4FCF5E7000000080140BD
:100AC000E00A000800000020100000006C0100088F
:100AD000F00A0008100000206006000088010008ED
:100AE0000000000000000000000000000000000006
:0400000508000131BD
:00000001FF
